:020000040800F2
:10000000800B002001010008EF100008D90D000846
:10001000EB100008D10900082B27000800000000A1
:10002000000000000000000000000000F71E0008B3
:10003000D509000800000000A113000809200008ED
:100040001B0100081B0100081B010008591C0008C7
:100050001B0100081B0100081B0100081B01000810
:100060001B0100081B010008D90900081B0100083A
:100070001B0100081B0100081B0100081B010008F0
:100080001B0100081B0100081B0100081B010008E0
:100090001B0100081B0100081B010008250A0008BD
:1000A0001B0100081B0100081B0100081B010008C0
:1000B0001B0100086D2000081B0100081B0100083F
:1000C0001B0100081B0100081B0100081B010008A0
:1000D0001B0100083D230008812400081B010008C3
:1000E0001B0100081B0100081B010008DFF80CD0F1
:1000F00000F0D2FA004800478D360008800B00203F
:100100000648804706480047FEE7FEE7FEE7FEE7B1
:10011000FEE7FEE7FEE7FEE7FEE7FEE70D2000084C
:10012000ED000008D2B201E000F8012B491EFBD21D
:1001300070470022F6E710B513460A4604461946F2
:10014000FFF7F0FF204610BD10B5002200E0521C62
:10015000835C8C5CA34201D1002BF8D1D8B2E1B210
:10016000401A10BD2DE9FE4F804681EA0300C00F02
:100170000C46009021F0004123F00045B8EB02004E
:10018000A94105D24046214690461C460B460246F0
:1001900023F00040104347D0270DC7F30A00C3F3F4
:1001A0000A510290401A019040286BDAC3F3130001
:1001B00040F4801B0098924620B10023D2EB030A42
:1001C00063EB0B0B01985946C0F14002504600F01A
:1001D0009EF906460D4650465946019A00F0B6F97A
:1001E00010EB08006141002487EA115284EAE773AA
:1001F0001A4340D0009A62B3019A012A4FEA07528B
:1002000015DC001B61EB02014FF0004202EA0752CD
:10021000CDE90042001C41F5801132462B4600F02A
:10022000EDF903B0BDE8F08F40462146F9E7001B29
:1002300061EB0201001C41F5801300185B4120189E
:10024000A2F5001747EB030140EAD570B6196D41DE
:1002500011E06D084FEA360645EAC0754FEA0752CD
:10026000001B61EB0201001C41F5801149084FEAB7
:1002700030000019514132462B4603B0BDE8F04F23
:1002800000F0ADB90098012240000023D0EB02023B
:1002900063EBE073009821464FEAE074B8EB00008E
:1002A00061EB0401E9E783F000435BE781F0004183
:1002B00058E72DE9FE4F81EA030404F0004421F0E1
:1002C000004100944FF0000B23F0004350EA01047A
:1002D0005ED052EA03045BD0C3F30A54C1F30A555B
:1002E0002C44A4F2F3340194A0FB0254C1F3130193
:1002F00041F48011C3F3130343F4801301FB024460
:1003000000FB034E840A970A44EA815447EA835764
:10031000A4FB076802958D0A05FB07854FEA932C1D
:1003200004FB0C542705029D4FEA065847EA16378E
:10033000B5EB08056EEB070C870E920E47EA8117A6
:1003400042EA8312A7FB0201B6EB0B0164EB000447
:100350002B0D43EA0C335E1844EB1C50DA46514631
:10036000E7FB0201C5F313044FEA0B3343EA1453CE
:100370004FEA0432019C43EA0603A4F10C04029400
:10038000009CCDE900B400F039F903B0BDE8F08F6E
:1003900000200146F9E72DE9F04D81EA030404F05D
:1003A000004B21F0004514464FF0000A23F00041B5
:1003B00050EA050220D054EA01021DD0C5F30A57C5
:1003C0000246C5F31303C1F31300C1F30A5640F408
:1003D000801543F48013A7EB0608101BD64608F2DD
:1003E000FD3873EB050002D308F1010801E0921813
:1003F0005B41B8F1000F03DA00200146BDE8F08D43
:1004000000204FF48011064684460EE0171B73EB64
:10041000050705D3121B63EB050306434CEA010CE9
:1004200049084FEA300092185B4150EA0107EDD1CC
:1004300052EA030012D082EA040083EA050108436D
:1004400005D0101BAB4106D20122002306E000229A
:100450004FF0004302E06FF0010253101AEB060068
:100460004CEB085110EB0A0041EB0B01BDE8F04DDD
:1004700000F0B5B896230022114600F082B870B59E
:10048000C1F30A5201F000450024C1F3130140F208
:10049000FF3341F480119A4201DA002070BD40F22E
:1004A00033439A42A2F2334203DC524200F03EF858
:1004B00000E090402C43F1D0404270BD00F000427B
:1004C00030F000400AD0C10D01F56071C0F3160094
:1004D00042EA0151C208400711437047002001461B
:1004E000704730B50B46014600202022012409E068
:1004F00021FA02F59D4205D303FA02F5491B04FADD
:1005000002F52844151EA2F10102F1DC30BD202ABB
:1005100004DB203A00FA02F1002070479140C2F15A
:10052000200320FA03F3194390407047202A04DB8C
:10053000203A21FA02F00021704721FA02F3D0405C
:10054000C2F120029140084319467047202A06DB79
:10055000CB17203A41FA02F043EAE07306E041FA91
:1005600002F3D040C2F1200291400843194670477F
:100570000029A8BF7047401C490008BF20F00100B7
:10058000704710B4B0FA80FC00FA0CF050EA010495
:1005900004BF10BC704749B1CCF1200421FA04F427
:1005A00011FA0CF118BF012121430843A3EB0C0100
:1005B000CB1D4FEA00614FEA102042BF002010BC63
:1005C000704700EBC35010440029A4BF10BC704713
:1005D000401C490008BF20F0010010BC704710B556
:1005E000141E73F1000408DA401C41F10001921856
:1005F0005B411A4301D120F0010010BD2DE9F04DFF
:1006000092469B4611B1B1FA81F202E0B0FA80F253
:1006100020329046FFF77BFF04460F4640EA0A006F
:1006200041EA0B0153465A46084313D0114653EA98
:10063000010019D0C8F140025046FFF777FF054688
:100640000E46504659464246FFF761FF084305D023
:10065000012004E020463946BDE8F08D0020054326
:1006600046EAE0762C4337430A986305E40AA0EB98
:1006700008000022FD0A44EA47540A3002D500204F
:100680000146E9E7010510196941DDE9084500194E
:100690006941BDE8F04DA2E7064C074D06E0E06871
:1006A00040F0010394E8070098471034AC42F6D3B9
:1006B000FFF720FD145600083456000870B58C185A
:1006C00010F8015B15F0070301D110F8013B2A1166
:1006D00006D110F8012B03E010F8016B01F8016B53
:1006E0005B1EF9D12B0705D40023521E0DD401F84F
:1006F000013BFAE710F8013BCB1A921C03E013F818
:10070000015B01F8015B521EF9D5A142D8D300204C
:1007100070BD21B1826842F00102826003E082680C
:1007200022F001028260704710B5044612488442EC
:1007300008D10121401500F061FE0021601500F094
:100740005DFE17E00D48844208D10121001500F03C
:1007500055FE0021201500F051FE0BE008488442B0
:1007600008D10121C80300F049FE00214FF40040E8
:1007700000F044FE10BD00000024014000280140AC
:10078000003C0140014600208A6802F004020AB1E0
:10079000012000E0002070470146C86C80B270471D
:1007A0000246002013680B400BB1012000E000203E
:1007B0007047014600208A6802F008020AB1012051
:1007C00000E000207047000030B502460020002302
:1007D00050680F4C20400D790C6844EA05242043F2
:1007E000506090680B4C2040D1E902542C434D7965
:1007F00044EA450420439060D06A20F470000C7CE9
:10080000641EE4B2234340EA0350D06230BD0000CE
:10081000FFFEF0FFFDF7F1FFF0B504460D460020A6
:100820000021092D11DDE068A5F10A0606EB460757
:10083000072606FA07F18843A5F10A0606EB4606E5
:1008400003FA06F10843E0600CE0206905EB450778
:10085000072606FA07F1884305EB450603FA06F179
:1008600008432061072A0FDA606B561E06EB8607E5
:100870001F2606FA07F18843561E06EB860605FA80
:1008800006F10843606322E00D2A0FDA206BD61FC1
:1008900006EB86071F2606FA07F18843D61F06EBEC
:1008A000860605FA06F10843206310E0E06AA2F12B
:1008B0000D0606EB86071F2606FA07F18843A2F10C
:1008C0000D0606EB860605FA06F10843E062F0BD68
:1008D000816841F008018160704721B1826842F46B
:1008E000A002826003E0826822F4A0028260704766
:1008F000816841F0040181607047000000B587B055
:1009000001214FF4017000F069FD4FF4004000F048
:1009100049FD0120ADF8040000208DF8070001A971
:10092000174800F069F91748FFF7FEFE0020029013
:100930008DF80C008DF80D004FF46020049000201D
:10094000059001208DF8180002A90E48FFF73CFF22
:1009500001210C48FFF7DDFE0A48FFF7B9FF00BF91
:100960000848FFF726FF0028FAD10648FFF7C0FF26
:1009700000BF0448FFF706FF0028FAD107B000BD0A
:10098000000801400024014010B5012000F046FDA0
:10099000002000F043FD10BD08B501460020009086
:1009A000034800900098084400900098008808BD13
:1009B000006C004008B500220092044A0092009AA0
:1009C00002440092009A116008BD0000006C0040D3
:1009D00000BFFEE77047000010B50A2002F01EFAC3
:1009E0000748006838B907A001F0CEFE02F0F2FE19
:1009F00008A001F0C9FE102000F024F810BD00008E
:100A000010012142CED2D6D0B6CFC1CB4B45593101
:100A10000000000077696669D6D8D6C3CDEAB3C9AD
:100A20000D0A000010B50A2002F0F8F90448006829
:100A300008B902F0C9FA202000F004F810BD000047
:100A4000140121420149086070470000140401406C
:100A5000002123498279002A3AD00A4612680368A5
:100A60009A430B461A600A1D126803689A430B1DCD
:100A70001A60027911440A6803681A430A60184A26
:100A80000832126803689A43154B08331A601A1D1E
:100A9000126803689A43124B0C331A604279102A89
:100AA0000ED11A1F126803681A430D4B08331A60DF
:100AB0001A1D126803681A43094B0C331A600DE0C3
:100AC0000749427911440A6803681A430A6005E03D
:100AD000027911440A6803689A430A60704700006B
:100AE000000401400EB500F045F80121084600F071
:100AF00075FC0521002000F05FF80421002000F0C3
:100B00005BF82020019001208DF80A0000208DF86C
:100B100008000C208DF8090001A8FFF799FF1020AC
:100B2000019001208DF80A0000208DF808000C20AB
:100B30008DF8090001A8FFF78BFF17208DF8000042
:100B400001208DF803008DF801008DF80200684641
:100B500000F0CEFA0A208DF8000001208DF8030085
:100B60008DF8010002208DF80200684600F0C0FAFE
:100B70000EBD000008B50121042000F02FFC20204C
:100B8000ADF8000048208DF8030003208DF8020026
:100B90006946084800F030F81020ADF80000482001
:100BA0008DF8030003208DF802006946014800F02B
:100BB00023F808BD0008014030B500228B071C0F48
:100BC0000F2303FA04F20B4B8C1053F82430934399
:100BD000084C8D1044F8253023468C1053F82430EF
:100BE0008C07240F00FA04F42343024C8D1044F8C0
:100BF000253030BD080001402DE9F04102460025B6
:100C00000026002000230024002791F803C00CF0E8
:100C10000F0591F803C00CF0100CBCF1000F03D0CD
:100C200091F802C04CEA050591F800C0BCF1000F34
:100C300031D0146800202BE04FF0010C0CFA00F3C7
:100C4000B1F800C00CEA03069E4220D183004FF0A9
:100C50000F0C0CFA03F7BC4305FA03FC4CEA04043E
:100C600091F803C0BCF1280F06D14FF0010C0CFA2B
:100C700000FCC2F814C00AE091F803C0BCF1480FB0
:100C800005D14FF0010C0CFA00FCC2F810C0401C5A
:100C90000828D1D31460B1F800C0BCF1FF0F34DDD7
:100CA000546800202EE000F1080C4FF0010808FA0B
:100CB0000CF3B1F800C00CEA03069E4221D1830078
:100CC0004FF00F0C0CFA03F7BC4305FA03FC4CEA97
:100CD000040491F803C0BCF1280F05D100F1080C01
:100CE00008FA0CF8C2F8148091F803C0BCF1480F60
:100CF00007D100F1080C4FF0010808FA0CF8C2F80F
:100D00001080401C0828CED35460BDE8F08100005C
:100D1000F0B50A46002300240021002500F000461B
:100D2000B6F1004F02D11D4EF16901E01B4E716812
:100D3000C0F3034583B200F44016B6F5401F08D156
:100D400021F07061154E766826F07066134F7E6054
:100D500012E000F48016B6F5801F06D1032606FACD
:100D600005F4A14341F0706106E0460D360103FA37
:100D700006F6B14341F0706122B1460D360103FA27
:100D800006F6314300F00046B6F1004F02D1034EA3
:100D9000F16101E0014E7160F0BD00000000014012
:100DA0000161704710B50446072301222146094816
:100DB000FFF732FD01210748FFF78FFD00BF022139
:100DC0000448FFF7EDFC0028F9D00248FFF7E4FCE7
:100DD00010BD00000024014000BFFEE710B5002058
:100DE0000F4908600F48006820F470200D49086022
:100DF0000846006840F44030086000200A49C1F805
:100E00009001022002F030F801200549086002201C
:100E100002F02AF800200449C1F88C0110BD00003E
:100E20008C812142000C01400080214208B5012143
:100E3000084600F0D3FA01210E48FFF769FF0121AF
:100E40000D48FFF765FF0121082000F0C7FA1820C0
:100E5000ADF8000010208DF8030003208DF802008B
:100E600069460648FFF7C8FE18210448FFF798FFB7
:100E700008BD00000004300000023000000C0140FA
:100E800010B500200F4908600F48006820F470205A
:100E90000D4908600846006840F4403008600120B1
:100EA0000A49C1F89001022001F0DEFF0120054946
:100EB0000860022001F0D8FF00200449C1F88C012D
:100EC00010BD00008C812142000C014000802142B5
:100ED00070B5054600241748006820F470201549B5
:100EE00008600846006840F400200860002616E00C
:100EF000002011490860022001F0B6FF01200F49CF
:100F0000C1F88C016006040E0B487C38006808B1FB
:100F1000601CC4B2012001F0A7FF701CC6B2082EED
:100F2000E6DB15B9FFF7ACFF01E0FFF757FF2046FE
:100F300070BD0000000C01408C81214200802142E4
:100F400070B504461848006820F4702016490860FF
:100F50000846006840F440300860002013490860EB
:100F600000251EE0E00920B101201049091D08609C
:100F700003E000200D49091D08606006040E0220F0
:100F800001F072FF012009490860022001F06CFFA6
:100F900000200749C1F88C01022001F065FF681CA0
:100FA000C5B2082DDEDB70BD000C01408C812142F2
:100FB0000080214210B50F48006820F470200D49D0
:100FC00008600846006840F44030086001200A4983
:100FD00008600A49C1F88C01042001F045FF002097
:100FE00005490860042001F03FFF00200349C1F8D3
:100FF0008C0110BD000C01409081214200802142F3
:1010000010B50F48006820F470200D4908600846AC
:10101000006840F44030086000200A4908600A492E
:10102000C1F89001042001F01FFF0120054908606C
:101030000549C1F89001042001F016FF10BD000021
:10104000000C01408C8121420080214210B5002417
:101050001448006820F470201249086008460068AF
:1010600040F40020086001200F49086001F0FCFEF8
:1010700001200E49C1F88C0101F0F6FE07E0601C6A
:10108000C4B2FA2C03DDFFF7BBFF012010BD0648F8
:10109000803800680028F2D10349091F086000BFAA
:1010A000F4E70000000C01409081214200802142C1
:1010B0000146CA1701EB92729210A1EB820292B91B
:1010C000642091FBF0F200FB121050B94FF4C8708D
:1010D00091FBF0F200FB121008B9012070470020CC
:1010E000FCE70120FAE70020F8E700BFFEE77047C1
:1010F00070B5002100230F22C47804B3154C246876
:1011000004F4E064C4F5E064210AC1F10403CA40B8
:10111000447804FA03F184781440214309010E4C09
:101120000678A155047804F01F050124AC40057829
:101130006D11AD0005F1E025C5F8004109E0047826
:1011400004F01F050124AC40044D0678761145F8E3
:10115000264070BD0CED00E000E400E080E100E01E
:1011600002490143024A1160704700000000FA057D
:101170000CED00E070B5002419E004F1B001C8B234
:10118000002100F0A4F80021084600F0A0F800219A
:10119000102000F09CF8002505E00121002000F05F
:1011A00096F8681CC5B2802DF7DB601CC4B2082C11
:1011B000E3DB70BD10B5FFF739FE0021AE2000F073
:1011C00086F80021084600F082F80021102000F087
:1011D0007EF80021402000F07AF80021B02000F0D5
:1011E00076F80021812000F072F80021FF2000F045
:1011F0006EF80021A12000F06AF80021A62000F07E
:1012000066F80021A82000F062F800213F2000F0DD
:101210005EF80021C82000F05AF80021D32000F029
:1012200056F80021084600F052F80021202000F076
:101230004EF80021084600F04AF80021D52000F0C1
:1012400046F80021802000F042F80021D82000F06C
:101250003EF80021052000F03AF80021D92000F0E6
:1012600036F80021F12000F032F80021DA2000F0F9
:101270002EF80021122000F02AF80021DB2000F0D7
:1012800026F80021302000F022F800218D2000F007
:101290001EF80021142000F01AF80021AF2000F001
:1012A00016F810BD70B504460D4605F1B001C8B280
:1012B000002100F00CF8102141EA1410002100F088
:1012C00006F804F00F00002100F001F870BD70B5C1
:1012D00005460C461CB1284601F03FFA02E02846BC
:1012E00001F025FA70BD00002DE9F04180460C4662
:1012F00017466006010E4046FFF7D4FF002519E0AF
:1013000000260CE0A7F120010C4A02EB011106EBCC
:10131000C502885C0121FFF7DAFF701CC6B2082EF7
:10132000F0DB012000EB4400C1B24046FFF7BAFFFA
:10133000681CC5B2022DE3DBBDE8F08188460008D9
:101340002DE9F04180460C4617466006010E4046E6
:10135000FFF7A8FF002517E000260AE00C4901EB83
:10136000471106EB0512885C0121FFF7B0FF701CE6
:10137000C6B2102EF2DB012000EB4400C1B24046A1
:10138000FFF790FF681CC5B2022DE5DBBDE8F081D8
:10139000884C0008014908627047000000000E42B6
:1013A0007047000001460020034A506820F4404086
:1013B00008435060704700000010024029B1064AFF
:1013C000D2690243044BDA6104E0034AD2698243E2
:1013D000014BDA61704700000010024029B1064A53
:1013E00092690243044B9A6104E0034A9269824382
:1013F000014B9A61704700000010024029B1064A73
:10140000D2680243044BDA6004E0034AD2688243A4
:10141000014BDA607047000000100240014908608B
:10142000704700004004424230B5002100220024F1
:1014300000232D4D6D6805F00C0121B1042905D064
:10144000082923D105E0294D056022E0274D0560DC
:101450001FE0254D6D6805F47012234D6D6805F48D
:101460008034022505EB92421CB9214D554305609D
:101470000BE01D4D6D6805F400351DB11C4D554345
:10148000056002E0194D5543056002E0174D056007
:1014900000BF00BF144D6D6805F0F0010909154D3E
:1014A0006B5C0568DD4045600F4D6D6805F4E061DB
:1014B000090A104D6B5C4568DD4085600A4D6D681A
:1014C00005F46051C90A0B4D6B5C4568DD40C56091
:1014D000054D6D6805F44041890B074D6B5CC5688F
:1014E000B5FBF3F5056130BD0010024000127A0033
:1014F00000093D00B8030020C803002010B50146D4
:101500000022002300204A11012A02D1094C23683D
:1015100006E0022A02D1074C236A01E0054C636A07
:1015200001F01F02012494401C400CB1012000E096
:10153000002010BD0010024000210B4A11700A4A21
:10154000203A82F82010012802D0042808D103E0B4
:101550000121054A117004E00521034A117000E0E1
:1015600000BF00BF70470000201002400149086022
:10157000704700003C0442420249096A0143014AA3
:10158000116270470010024010B500240FE00020E7
:1015900004EB4401084A5054002104EB4400401C71
:1015A000115404EB4400801C1154601CC4B2482C3C
:1015B000EDDB00F021F810BD0806002008B5012180
:1015C0000420FFF70BFF4020ADF8000010208DF83D
:1015D000030003208DF8020069460548FFF70CFB65
:1015E000002004490860502001F03EFC08BD0000C6
:1015F000000801409801214270B5002400BF0FE0AF
:1016000004EB44039B1C094DEA5C04EB44035B1CA4
:10161000E95C04EB4403E85C00F00AF8601CC4B227
:10162000482CEDDB00F052F970BD000008060020E8
:1016300070B506460C461546204600F007F83046C1
:1016400000F004F8284600F001F870BD00B502462D
:1016500000230BE002F0800010B100F0A5F901E0DA
:1016600000F03EF95006020E581CC3B2082BF1DB05
:1016700000BD000030B500EB4004054D295500EBDE
:101680004004641C2A5500EB4004A41C2B5530BDBB
:10169000080600202DE9F04105460F4690463C2FF4
:1016A00001DC172D02DD0120BDE8F0810C2D02DDEB
:1016B000A5F10C00C5B200246DE0BC4263DA2046FF
:1016C00001F046FA06460D2E5CD2DFE806F05B0715
:1016D0000E151C232A31383F464D540000231A466C
:1016E00041462046FFF7C6FF4CE00023424619461C
:1016F0002046FFF7BFFF45E0002342464146204613
:10170000FFF7B8FF3EE04346002211462046FFF7B0
:10171000B1FF37E04346002241462046FFF7AAFFCB
:1017200030E04346424600212046FFF7A3FF29E070
:1017300000231A4641462046FFF79CFF22E0002383
:10174000424619462046FFF795FF1BE0002342461C
:1017500041462046FFF78EFF14E043460022114623
:101760002046FFF787FF0DE0434600224146204612
:10177000FFF780FF06E04346424600212046FFF780
:1017800079FF00BF05E000231A4619462046FFF7FF
:1017900071FF601CC4B23C2C8FDB01248FE0AC4293
:1017A00078DC0D2C74D2DFE804F0731019222B348E
:1017B0003D464F58616A070004F13101C8B2002369
:1017C0001A464146FFF756FF62E004F13C01C8B2F9
:1017D000002342461946FFF74DFF59E004F13C0152
:1017E000C8B2002342464146FFF744FF50E004F1EF
:1017F0003C01C8B2434600221146FFF73BFF47E0D9
:1018000004F13C01C8B2434600224146FFF732FFD3
:101810003EE004F13C01C8B2434642460021FFF7D6
:1018200029FF35E004F13C01C8B200231A464146C5
:10183000FFF720FF2CE004F13C01C8B20023424630
:101840001946FFF717FF23E004F13C01C8B200235B
:1018500042464146FFF70EFF1AE004F13C01C8B2D0
:10186000434600221146FFF705FF11E004F13C0159
:10187000C8B2434600224146FFF7FCFE08E004F1EF
:101880003C01C8B2434642460021FFF7F3FE00BFC9
:1018900013E0FFE70C2C08D004F13C01C8B2002390
:1018A0001A461946FFF7E6FE07E004F13001C8B218
:1018B00000231A461946FFF7DDFE601CC4B20D2C4A
:1018C000FFF66DAFFFF798FE0020EDE610B50020A3
:1018D00002490860502001F0C7FA10BD980121426A
:1018E00001202F49086000BF00BF00BF00BF00BF3C
:1018F00000BF00BF00BF00BF00BF00BF00BF00BFF0
:1019000000BF00BF00BF00BF00BF00BF00BF00BFDF
:1019100000BF00202349C1F8980100BF00BF00BFED
:1019200000BF00BF00BF00BF00BF00BF00BF00BFBF
:1019300000BF00BF00BF00BF00BF00BF00BF00BFAF
:1019400000BF00BF00BF00BF00BF00BF00BF00BF9F
:1019500000BF00BF00BF00BF00BF00BF00BF00BF8F
:1019600000BF00BF00BF00BF00BF00BF00BF00BF7F
:1019700000BF00BF00BF00BF00BF00BF00BF00BF6F
:1019800000BF00BF00BF00BF00BF00BF00BF00BF5F
:1019900000BF00BF00BF00BF00BF00BF00BF704757
:1019A000980121420000214201202F49086000BF18
:1019B00000BF00BF00BF00BF00BF00BF00BF00BF2F
:1019C00000BF00BF00BF00BF00BF00BF00BF00BF1F
:1019D00000BF00BF00BF00BF00BF00BF00BF00BF0F
:1019E00000BF00BF00BF00BF00BF00BF00BF00BFFF
:1019F00000BF00BF00BF00BF00BF00BF00BF00BFEF
:101A000000BF00BF00BF00201849C1F8980100BF07
:101A100000BF00BF00BF00BF00BF00BF00BF00BFCE
:101A200000BF00BF00BF00BF00BF00BF00BF00BFBE
:101A300000BF00BF00BF00BF00BF00BF00BF00BFAE
:101A400000BF00BF00BF00BF00BF00BF00BF00BF9E
:101A500000BF00BF00BF00BF00BF00BF00BF00BF8E
:101A600000BF00BF00BF7047980121420000214223
:101A7000024909888143014A1180704704280040C7
:101A80000348008840F010000149088070470000BA
:101A900004280040034800884FF6EF7108400149D0
:101AA000088070470428004070B5002600240025F7
:101AB00000F07AF806463848B6FBF0F4374800885C
:101AC000A0423CD035490C8040F2B27510E0284667
:101AD000FFF7EEFA40B1B4F5B77F02D3A4F5B774BF
:101AE00004E0681C85B206E0A4F26D14681C85B29F
:101AF000B4F5B67FEBD800BF29488580002516E0F5
:101B000027498888FFF7D4FA30B1012D04D11D2C64
:101B100001D31D3C09E00CE02248405DA04203D8FF
:101B20002048405D241A00E003E0681C85B21C2CAC
:101B3000E6D200BF681C1A498871601CC87116483B
:101B4000B6FBF0F100FB11644FF46160B4FBF0F000
:101B5000134908704FF46160B4FBF0F100FB1140D1
:101B60003C21B0FBF1F00E4948704FF46160B4FBCA
:101B7000F0F100FB11403C21B0FBF1F201FB12003F
:101B8000074988700B46DA799979988800F028F827
:101B900003490872002070BD80510100EC03002051
:101BA000E0060020F4550008002103480188001FCA
:101BB000008841EA004070471C2800400146002090
:101BC000064A12880A40D0B2044A121F12880A40FC
:101BD00012B108B1012000E0002070470428004045
:101BE000F0B503460C461546642093FBF0F0C6B2F0
:101BF000642093FBF0F700FB1730C1B2132E02DD17
:101C000001F16400C1B20846CF1701EB977701EBF1
:101C1000A707BAB2072092FBF0F700FB172082B2A9
:101C20005719601EDFF82CC01CF80000384482B23F
:101C3000CF1701EB9777BF10A1EB87071FB9032CD4
:101C400001DA501E82B2072092FBF0F700FB17204A
:101C5000C0B2F0BDE855000810B50120FFF7AEFF97
:101C600008B1FFF721FF0220FFF7A8FF20B10220F3
:101C7000FFF7FEFEFFF718FF0520FFF7F9FE00F063
:101C800003F910BD29B1064A12880243044B1A8099
:101C900004E0034A12888243014B1A807047000017
:101CA000002800401CB5002401214FF0C050FFF770
:101CB00085FB0120FFF76EFB0420FEF76DFE45F269
:101CC0005001884240D0FEF75FFE0120FFF734FC50
:101CD00004E0601CC4B20A2001F0A0F84120FFF724
:101CE0000DFC08B9FA2CF4DBFA2C01DB01201CBD39
:101CF0004FF48070FFF740FC0120FFF737FC00F045
:101D0000C3F800F0CBF801210846FFF7BBFF00F055
:101D1000BBF8FFF7B5FE47F6FF7000F0A5F800F03E
:101D2000B3F837202A2111230E22CDE9001001211A
:101D300040F2DF7000F026F8FFF7ACFE45F25001EC
:101D40000420FEF737FE07E000F0A8F8012108465E
:101D5000FFF798FF00F098F800F004F8FFF7A4FEF2
:101D60000020C4E708B503208DF8000000208DF89E
:101D700001008DF8020001208DF803006846FFF78E
:101D8000B7F908BD2DE9F05F06460F469046994623
:101D9000DDE90AAB002440F2B270864203DB40F674
:101DA0003300864202DD0120BDE8F09F40F2B275AB
:101DB0000AE02846FFF77CF910B12048044401E00E
:101DC0001F480444681C85B2B542F2DB781EC7B2D6
:101DD000002510E01B48405D40F2A321484304EB7E
:101DE000C0143046FFF764F918B1012D01D116482F
:101DF0000444681C85B2BD42ECDBA8F1010040F24E
:101E0000A321484304EBC014C9EB4910C0EB0920DF
:101E100004EB0014CAEB0A1004EB80045C440121BB
:101E20004FF0C050FFF7CAFA0120FFF7B3FA20467F
:101E300000F00CF800F028F80020B5E70085E2017A
:101E40008033E101F45500088051010000B50246DD
:101E5000FFF716FE100C03490880091D0A80FFF7E2
:101E600019FE00BD1828004000B50246FFF708FE25
:101E7000C2F3034003490880091D0A80FFF70AFEE8
:101E800000BD00000828004000BF0348008800F0A3
:101E900020000028F9D07047042800400748008837
:101EA0004FF6F77108400549088000BF03480088D5
:101EB00000F008000028F9D0704700000428004016
:101EC00010B5FA2000F0AAFFFFF774F88820FFF79A
:101ED00037F8FFF7BBF82120FFF732F8FFF7B6F825
:101EE0003020FFF72DF8FFF7B1F8FFF789F89620BB
:101EF00000F094FF10BD704710B500F001F810BD60
:101F00000CB50020019000903348006840F4803008
:101F10003149086000BF3048006800F4003000908C
:101F20000198401C0190009818B90198B0F5A06F75
:101F3000F1D12948006800F4003010B10120009070
:101F400001E0002000900098012843D12348006858
:101F500040F01000214908600846006820F00300A6
:101F600008600846006840F0020008601A484068AF
:101F7000194948600846406848600846406840F48F
:101F8000806048600846406820F47C10486008463D
:101F9000406840F4E81048600846006840F08070EF
:101FA000086000BF0C48006800F000700028F9D0FD
:101FB0000948406820F00300074948600846406827
:101FC00040F00200486000BF0348406800F00C0089
:101FD0000828F9D10CBD000000100240002002408A
:101FE000042808D14FF0E021096941F004014FF0C5
:101FF000E022116107E04FF0E021096921F00401BE
:102000004FF0E022116170477047000010B513488F
:10201000006840F001001149086008464068104916
:1020200008400E494860084600680E4908400B49C0
:1020300008600846006820F4802008600846406870
:1020400020F4FE0048604FF41F008860FFF754FF43
:102050004FF000600449086010BD0000001002400D
:102060000000FFF8FFFFF6FE08ED00E010B50121CB
:10207000584800F0F6F800287ED0574800686428D9
:1020800012D25549087801F08BFC012802D1642056
:10209000514908605049087801F082FC20B94E4847
:1020A0000068401C4C4908604B480068642826D1F1
:1020B00002F096F8012822D1C82000F0AFFE01F00E
:1020C00025FCC82000F0AAFEC82000F0A7FEC8200A
:1020D00000F0A4FEC82000F0A1FEC82000F09EFE83
:1020E000C82000F09BFE00F06FFFC82000F096FEB5
:1020F00000F06EFF38480068401C374908603648D9
:102100000068642861D9344800680A21B0FBF1F204
:1021100001FB120038B93148007820B900F00CFFFB
:1021200000202E4908702C4800680521B0FBF1F210
:1021300001FB120088B92948007870B92848007856
:1021400002F062FA2648007808B9012000E0002079
:10215000234908700020214908701F48006841F297
:102160007071884207D11D48007820B900F02CFF1B
:1021700065201949086000E02BE0174800686421D9
:10218000B0FBF1F201FB120020B91448007808B945
:1021900000F01EFF104800686421B0FBF1F201FB63
:1021A000120050B902F092F8012803D100200B4927
:1021B000087002E00120094908700848007820B939
:1021C00005480068401C044908600121014800F0EE
:1021D00039F810BD00040040DC030020E1030020BA
:1021E000E00300207FB505460C4601210220FFF7E1
:1021F000E5F8ADF80850ADF804400020ADF80A004D
:10220000ADF8060001A90E4800F046F8012211467B
:102210000B4800F037F81D208DF8000001208DF8E4
:10222000010000208DF8020001208DF803006846AF
:10223000FEF75EFF0121024800F007F87FBD0000B5
:1022400000040040CA430282704721B1028842F074
:102250000102028004E002884FF6FE731A400280F9
:10226000704730B50246002000230024158A05EA95
:102270000103958905EA010413B10CB1012000E0C6
:10228000002030BD1AB183890B43838102E083892A
:102290008B43838170470000002202881D4B9842C7
:1022A0000ED01D4B98420BD0B0F1804F08D01B4B85
:1022B000984205D01A4B984202D01A4B984204D14A
:1022C0004FF68F731A404B881A43174B984207D02A
:1022D000164B984204D04FF6FF431A40CB881A435E
:1022E00002808B8883850B8803850A4B98420BD02C
:1022F000094B984208D00E4B984205D00D4B98429E
:1023000002D00D4B984201D10B7A038601238382C0
:1023100070470000002C01400034014000040040E0
:1023200000080040000C0040001000400014004075
:1023300000400140004401400048014010B540F217
:102340002551174800F02DF940B3154800F0E4F985
:10235000C4B21448007808BB13480078012808D19B
:102360000A2C02D000F026F818E001200D49087070
:1023700014E00D2C03D101200B4908700EE00B482E
:102380000B49097844540A480078401C08490870F1
:1023900008460078C82801DB00F00CF810BD0000EA
:1023A00000380140D0030020D103002008040020A1
:1023B000D203002000200349087003490870034934
:1023C00008707047D0030020D1030020D203002002
:1023D00000B587B001210420FFF700F80121880330
:1023E000FEF7FCFF18208DF81B004FF40070ADF8CD
:1023F000180001208DF81A0006A91F48FEF7FCFB03
:1024000004208DF81B000002ADF8180001208DF8A3
:102410001A0006A91848FEF7EFFB4FF4E1300290CE
:102420000020ADF814000C20ADF812000020ADF82B
:102430001000ADF80E00ADF80C0002A90F4800F036
:10244000FFF801210D4800F093F8012240F22551D8
:102450000A4800F0D0F825208DF8040001208DF8FE
:1024600007008DF805008DF8060001A8FEF740FE74
:10247000FFF7A0FF07B000BD000801400038014091
:1024800010B540F22551064800F08BF830B10448F1
:1024900000F042F9C4B2204601F04CFD10BD00002E
:1024A00000440040002003490870034908700349B4
:1024B00008707047D3030020D4030020D503002008
:1024C00000B587B001210420FEF788FF01214804F0
:1024D000FEF774FF18208DF81B000420ADF81800DB
:1024E00001208DF81A0006A91F48FEF785FB04207D
:1024F0008DF81B000820ADF8180001208DF81A0097
:1025000006A91948FEF778FB4FF4E130029000204D
:10251000ADF814000C20ADF812000020ADF810004A
:10252000ADF80E00ADF80C0002A9104800F088F8D4
:1025300001210E4800F01CF8012240F225510B4801
:1025400000F059F826208DF8040001208DF80700CE
:1025500000208DF805008DF8060001A8FEF7C8FDE3
:10256000FFF7A0FF07B000BD000801400044004095
:1025700021B1828942F40052828104E082894DF6C1
:10258000FF731A408281704702460020B1F5007F38
:1025900000D100BF13880B400BB1012000E00020E8
:1025A000704770B50246002400230025002040F645
:1025B0006A16B14200D100BFC1F3421501F01F03FA
:1025C000012606FA03F3012D02D19689334006E075
:1025D000022D02D1168A334001E0968A33400C1254
:1025E000012606FA04F41688344013B10CB1012018
:1025F00000E0002070BDF0B5034600240026002551
:10260000002040F66A17B94200D100BF1846C1F356
:10261000421401F01F06012707FA06F5012C01D12B
:102620000C3004E0022C01D1103000E014301AB15B
:1026300007682F43076002E00768AF430760F0BDFB
:102640002DE9F04786B005460E460024A24600BF9D
:10265000A1460027B08900B100BF2F462C8A4CF656
:10266000FF700440F08804432C82AC894EF6F310CE
:102670000440B08831890843718908430443AC8120
:10268000AC8A4FF6FF400440B0890443AC8201A8F5
:10269000FEF7CAFE1F48874202D1DDF810A001E014
:1026A000DDF80CA0A88900F4004040B10AEBCA0094
:1026B00000EB0A1031684900B0FBF1F807E00AEBC3
:1026C000CA0000EB0A1031688900B0FBF1F8642001
:1026D000B8FBF0F004012009642101FB1089A889EE
:1026E00000F4004040B1322000EBC900B0FBF1F033
:1026F00000F00700044308E0322000EB09106421D9
:10270000B0FBF1F000F00F0004432C8106B0BDE8EF
:10271000F08700000038014001468888C0F30800B7
:102720007047C1F308028280704700BFFEE710B512
:102730000446FEF73FFC7820FEF702FCFEF786FC1D
:102740000020FEF7FDFBFEF781FC2046FEF7F8FBBC
:10275000FEF77CFCFEF754FC10BD10B50446FEF7F6
:1027600029FC7820FEF7ECFBFEF770FC4020FEF71A
:10277000E7FBFEF76BFC2046FEF7E2FBFEF766FC8C
:10278000FEF73EFC10BD00000FB4054B10B503A9C9
:10279000044A029800F02CF810BC5DF814FB00000D
:1027A000C12E0008D80300200FB4084B10B504A9AF
:1027B00002AA039800F01CF8044602A9002000F0C9
:1027C000B8F9204610BC5DF814FB0000332B00085C
:1027D00002E008C8121F08C1002AFAD170477047EA
:1027E000002001E001C1121F002AFBD17047000048
:1027F0002DE9FF4F8BB088460546002606E02528C8
:102800000BD0DDE90D1290476D1C761C287800284E
:10281000F5D10FB03046BDE8F08F0024A146A246A6
:102820000122AE4900E0044315F8013F203B02FAC3
:1028300003F00842F7D128782A2810D06FF02F0231
:102840002878A0F13001092915D809EB890102EB9C
:10285000410144F0020400EB01096D1CF0E758F857
:10286000041B5FEA010903D544F40054C9F10009CF
:1028700044F002046D1C28782E2817D115F8010F9A
:1028800044F004042A280ED06FF02F022878A0F11B
:10289000300109290AD80AEB8A0102EB410100EB59
:1028A000010A6D1CF2E758F804AB6D1C28786C28FF
:1028B0000FD006DC4C2817D068280DD06A2814D118
:1028C00004E0742810D07A280FD10DE044F40014ED
:1028D0000AE044F4801401E044F440146978814231
:1028E00002D104F580146D1C6D1C2878692865D010
:1028F00006DC00288DD0632827D0642806D15DE04F
:102900006E2808D073282AD0752877D0DDE90D12FB
:102910009047761CE0E0C4F30250022809D0032857
:102920000DD0D8F8001004280DD00E6008F104086E
:10293000D2E0D8F80010F217C1E90062F6E7D8F843
:1029400000100E80F2E70E70F0E718F8041B8DF807
:10295000001000208DF80100EB46012003E058F83C
:1029600004BB4FF0FF3061074FF0000701D40AE0CD
:102970007F1C57450DDA8742FADB1BF80710002948
:10298000F6D106E07F1C8742FCDB1BF8071000290C
:10299000F8D1DDE90D23A9EB07008146214600F0BF
:1029A000B1F83044C61904E0DDE90D121BF8010B43
:1029B00090477F1EF8D22146484688E058F8040B1D
:1029C000C4F302514FF00A0B032900D100B20429CD
:1029D00000D140B2002802DA40422D2102E0210558
:1029E00005D52B218DF82410012104E006E0E10734
:1029F00010D02021F6E708AF089113E058F8040B37
:102A0000C4F302514FF00A0B032900D180B204290C
:102A100000D1C0B20021EEE75946FDF762FD30312A
:102A200007F8011D0028F7D1ADEB070000F1200BDE
:102A3000600702D524F4803401E04FF0010ADA4542
:102A400002DDAAEB0B0000E00020824600EB0B0148
:102A500008980144A9EB01000A90E00306D4DDE9DF
:102A60000D2321460A9800F04DF806444FF0000966
:102A700008E009A911F80900DDE90D12904709F1F4
:102A80000109761C08998945F3DBE0030CD5DDE9E3
:102A90000D2321460A9800F035F8064404E0DDE9EC
:102AA0000D1230209047761CBAF10001AAF1010AFC
:102AB000F5DC05E0DDE90D1217F8010B9047761CF7
:102AC000BBF10001ABF1010BF4DC0A982146DDE912
:102AD0000D2300F005F806446D1C97E60928010057
:102AE0002DE9F041044600251E461746880404D40B
:102AF00005E039462020B0476D1C641EF9D52846F4
:102B0000BDE8F0812DE9F041044600251E469046BF
:102B1000C80301D5302700E02027880404D505E04C
:102B200041463846B0476D1C641EF9D52846BDE8BD
:102B3000F0810A68531C0B601070704710B50021BB
:102B4000652000F0ADFD0021662000F0A9FD10BD5C
:102B50000146052901DA012070470A2901DA02201D
:102B6000FAE70F2901DA0320F6E7142901DA042035
:102B7000F2E7192901DA0520EEE71E2901DA06201D
:102B8000EAE7232901DA0720E6E7282901DA082005
:102B9000E2E72D2901DA0920DEE7322901DA0A20ED
:102BA000DAE7372901DA0B20D6E73C2901DA0C20D5
:102BB000D2E70020D0E7000070B50546002412E0FF
:102BC000C4EBC40000EB4000084A81182846FDF71A
:102BD000BBFA30B9601CC2B20121002001F0DEFA5C
:102BE0002D24601CC4B22C2CEADB70BD0000002038
:102BF00030B502460B46FF20002113E0555C6840CB
:102C000008240BE000F0800525B1312585EA400558
:102C1000E8B201E04506280E651EECB2002CF1DC9E
:102C20004D1CE9B29942E9DB30BD00002DE9F05FAF
:102C300004465149E01C11F800A0BAF1060F42D039
:102C400007DCBAF1060F79D2DFE80AF015181B1E6F
:102C50003539BAF11C0F5FD006DCBAF1080F58D035
:102C6000BAF10E0F6AD15DE0BAF1200F68D0BAF167
:102C7000210F7CD16CE000F0C1FC79E000F0C0FFD6
:102C800076E000F051F973E03B49A01D085C3B4938
:102C9000087000220321084601F084FC37480078C0
:102CA000032807D13648007820B900F043FD012001
:102CB000334908705CE001203249087058E0012077
:102CC0003149087054E02C49601D095C2A4A201DD6
:102CD000105C41EA0026002518E0A01D2844801C55
:102CE0002549085C4FF6FF7101EA0027A01D284422
:102CF000C01C2149085C384487B22144891D481909
:102D000000F044F88346381D284485B2B542E4DB20
:102D10002EE0FFF713FF2BE017492144881D00F038
:102D200079FD25E01449A01D11F80080E01D11F87F
:102D300000904946404601F0A3FB19E017E0FFE789
:102D40000D4BE21D995CA21D985C01F00BFA0FE09F
:102D50000949601D095C084A201D105C41EA0026F3
:102D600011462144881D314601F020F900E000BFE2
:102D700000BFBDE8F09F0000EA060020FB03002032
:102D8000FD030020F9030020FA0300202DE9F0479D
:102D90000446267894F80180A0784FF6FF7101EA86
:102DA0000025E078284485B2304600F0A5F80746B3
:102DB000084800EB47004078404502D00020BDE8BD
:102DC000F0872A46211D304600F074F881464846B7
:102DD000F5E700000056000810B56FF00400FFF79B
:102DE000FFF80A4800680A49B0FBF1F00949087089
:102DF0000846007800EB4001C1EBC0104FF6FF71B0
:102E000001EAC0000449088010BD0000A4030020AE
:102E100000127A00CC030020CE0300200146114AA4
:102E200012884A434FF0E0235A6100229A611A4601
:102E3000126942F001021A6100BF4FF0E0221069EE
:102E400000F001021AB100F48032002AF5D04FF0F0
:102E5000E022126922F001024FF0E0231A61002201
:102E60009A617047CE0300200146114A12784A4306
:102E70004FF0E0235A6100229A611A46126942F02B
:102E800001021A6100BF4FF0E022106900F0010258
:102E90001AB100F48032002AF5D04FF0E022126916
:102EA00022F001024FF0E0231A6100229A6170477C
:102EB000CC030020034600BF00BF00BF70470000E6
:102EC00000BF054A128802F04002002AF9D0C2B2BF
:102ED000014B1B1D1A8070470038014030B5024677
:102EE0000020002305E012F8015B2C18E0B25C1C06
:102EF000A3B28B42F7DB30BD70B5054600F012F887
:102F00000646002407E0064810F81400A84200D145
:102F100003E0601CC4B2B442F5DB00BF204670BDC4
:102F2000005600080220704710B5002422460321F5
:102F3000022001F037FB10BD70B500F011FFC4B2E4
:102F400084B900F07DFD124800880A2190FBF1F55C
:102F50002946662000F0A4FB0E480188652000F099
:102F60009FFB14E0012C05D10BA0FFF70DFCFEF731
:102F7000A7FF0CE0022C05D10BA0FFF705FCFEF724
:102F80009FFF04E00CA0FFF7FFFBFEF799FF70BD69
:102F9000EA030020E8030020CEC2B6C8BBF1C8A1F6
:102FA000CAA7B0DC0D0A0000CAAAB6C8BBF1C8A106
:102FB000CAA7B0DC0D0A0000B6C1C8A1CAFDBEDDBB
:102FC000CAA7B0DC0D0A000010B500F0A5FB10BDCB
:102FD00070B501220221104601F0E0F804460122FA
:102FE0001146104601F0DAF8054620220121102092
:102FF000FEF77AF9202201211820FEF775F9202228
:1030000001211046FEF770F9642C1BDA642094FB52
:10301000F0F100FB11400A2190FBF1F03030C6B214
:10302000324601211020FEF75FF90A2094FBF0F1EF
:1030300000FB11403030C6B2324601211820FEF7A5
:1030400053F924E0642094FBF0F03030C6B23246ED
:1030500001211020FEF748F9642094FBF0F100FBF9
:1030600011400A2190FBF1F03030C6B23246012106
:103070001820FEF739F90A2094FBF0F100FB11400B
:103080003030C6B2324601212020FEF72DF907224A
:1030900002215020FEF754F9072202216020FEF79A
:1030A0004FF9072202217020FEF74AF90722032177
:1030B0005020FEF745F9072203216020FEF740F972
:1030C000072203217020FEF73BF92D2D22D2DFE8E5
:1030D00005F01722283339444A555B616C777D88A7
:1030E00093A3AEBEC9D4FDFBFAF9F8F7F6F5F4F3F5
:1030F000F2F1F0EFEEEDECEBEAE9E8E7E6E5E4000B
:10310000242203216020FEF71BF9252203217020D1
:10311000FEF716F960E2262203217020FEF710F96F
:103120005AE2272203216020FEF70AF92822032110
:103130007020FEF705F94FE2292203217020FEF7E7
:10314000FFF849E22B2203216020FEF7F9F828223C
:1031500003217020FEF7F4F83EE22B2203217020B9
:10316000FEF7EEF838E2272203216020FEF7E8F8A8
:10317000282203217020FEF7E3F82DE22C22032100
:103180007020FEF7DDF827E22D2203217020FEF7E4
:10319000D7F821E22E2203216020FEF7D1F82D225C
:1031A00003217020FEF7CCF816E2372203216020BD
:1031B000FEF7C6F82F2203217020FEF7C1F80BE2BC
:1031C0002F2203217020FEF7BBF805E22E220321F7
:1031D0006020FEF7B5F82F2203217020FEF7B0F82B
:1031E000FAE1302203216020FEF7AAF82F22032102
:1031F0007020FEF7A5F8EFE1312203215020FEF701
:103200009FF8302203216020FEF79AF82F22032135
:103210007020FEF795F8DFE1322203216020FEF7EF
:103220008FF82F2203217020FEF78AF8D4E12F2295
:1032300003215020FEF784F8332203216020FEF79B
:103240007FF82D2203217020FEF77AF8C4E13422A2
:1032500003216020FEF774F8352203217020FEF769
:103260006FF8B9E1362203216020FEF769F82D22BC
:1032700003217020FEF764F8AEE1372203215020CD
:10328000FEF75EF8322203216020FEF759F82D2266
:1032900003217020FEF754F89EE17EE172E161E1C6
:1032A00055E13FE133E127E11BE105E1EFE0D9E042
:1032B000C8E0B2E0A6E09AE08EE078E067E056E091
:1032C00040E034E023E017E00BE0FFE73022032189
:1032D0006020FEF735F82F2203217020FEF730F82A
:1032E0007AE1362203216020FEF72AF82D220321FD
:1032F0007020FEF725F86FE1372203216020FEF7EA
:103300001FF82D2203217020FEF71AF864E13822FD
:1033100003215020FEF714F8302203216020FEF72D
:103320000FF82F2203217020FEF70AF854E12F2214
:1033300003216020FEF704F83A2203217020FDF7F4
:10334000FFFF49E13B2202216020FDF7F9FF3C220B
:1033500002217020FDF7F4FF302203216020FDF7E9
:10336000EFFF2F2203217020FDF7EAFF34E13D2219
:1033700003215020FDF7E4FF3A2203216020FDF7EE
:10338000DFFF322203217020FDF7DAFF24E12E2235
:1033900003216020FDF7D4FF302203216020FDF7D8
:1033A000CFFF2F2203217020FDF7CAFF14E13E2238
:1033B00002216020FDF7C4FF372202217020FDF7B3
:1033C000BFFF322203216020FDF7BAFF2F22032125
:1033D0007020FDF7B5FFFFE0322203216020FDF7EA
:1033E000AFFF2D2203217020FDF7AAFFF4E0312268
:1033F00003216020FDF7A4FF402203217020FDF788
:103400009FFFE9E0412203216020FDF799FF3D2263
:1034100003217020FDF794FFDEE02E2202216020C0
:10342000FDF78EFF422202217020FDF789FF362230
:1034300003216020FDF784FF2D2203217020FDF77A
:103440007FFFC9E02E2203215020FDF779FF3022B3
:1034500003216020FDF774FF2F2203217020FDF768
:103460006FFFB9E0372202216020FDF769FF422299
:1034700002217020FDF764FF322203216020FDF756
:103480005FFF2F2203217020FDF75AFFA4E03722AF
:1034900002216020FDF754FF3C2202217020FDF73D
:1034A0004FFF262203216020FDF74AFF432203211C
:1034B0007020FDF745FF8FE02E2202216020FDF7EE
:1034C0003FFF422202217020FDF73AFF36220321FE
:1034D0006020FDF735FF2F2203217020FDF730FF1C
:1034E0007AE0442203216020FDF72AFF2F220321E6
:1034F0007020FDF725FF6FE03F2203216020FDF7DC
:103500001FFF322203217020FDF71AFF64E03422EE
:1035100003216020FDF714FF452203217020FDF7F1
:103520000FFF59E0382202216020FDF709FF3D22FC
:1035300002217020FDF704FF3A2203216020FDF7ED
:10354000FFFE322203217020FDF7FAFE44E0442200
:1035500003216020FDF7F4FE2C2203217020FDF7EB
:10356000EFFE39E03A2203215020FDF7E9FE462222
:1035700003216020FDF7E4FE4A2203217020FDF7BD
:10358000DFFE29E0342203216020FDF7D9FE472227
:1035900003217020FDF7D4FE1EE0312202215020CD
:1035A000FDF7CEFE302202216020FDF7C9FE2F225A
:1035B00002217020FDF7C4FE482203215020FDF7B0
:1035C000BFFE342203216020FDF7BAFE352203211D
:1035D0007020FDF7B5FE00BF00BF294601A0FFF730
:1035E000D3F870BD636F6F6B696E675F636F6E64F6
:1035F0006974696F6E3D25640D0A000010B50024E2
:103600000B48007840B90021204600F091FBC4B27D
:1036100001200749087004E00121204600F088FBE2
:10362000C4B222460321002000F0BCFF10BD000000
:10363000FC03002010B5FFF7CFFBFDF7F7FBFDF70C
:10364000B9FDFDF797FDFEF73BFC00F003FFFDF72A
:10365000B5FFFDF799FFFEF725FBFDF74FF9FEF7E4
:10366000B7FEFDF73FFA4EF65F217720FEF7BAFD71
:10367000FEF726FF01A0FFF787F810BDB3F5CABC1F
:10368000BBAFCDEAB3C90D0A000000004FF4A06043
:10369000FDF766FDFFF7CEFF01E000F0F5FEFCE769
:1036A00070B505460C4600261A480078012800D15E
:1036B00070BD2946304600F03BFB064602213046ED
:1036C00000F036FB06460021304600F031FB06468E
:1036D0000421304600F02CFB0646210E304600F057
:1036E00027FB0646C4F30741304600F021FB06469F
:1036F000C4F30721304600F01BFB0646E1B230461A
:1037000000F016FB064632460321072000F04AFF70
:103710000120CDE7F803002010B5002203211C2072
:1037200000F040FF10BD0000014800787047000025
:10373000FB0300207FB50024002000900190029040
:10374000039000260025022600BF13E0174850F81A
:10375000242017A10DF10100FFF726F8C0B28DF863
:1037600000009DF80000421C6946284600F0CCFA93
:103770000546641CB442E9DB01220FA10DF10100F2
:10378000FFF712F8C0B28DF800009DF80000421C4F
:103790006946284600F0B8FA05460AA0FEF7F4FF8D
:1037A0002A460321202000F0FDFE7FBD00040020FA
:1037B000772E257300000000772E646174652E2536
:1037C000640000006F70656E5F7765746865720DE8
:1037D0000A00000010B500200349087000220321F0
:1037E000042000F0DFFE10BDF903002070B5044690
:1037F00000250020064908702146284600F098FA66
:10380000C5B22A460321052000F0CCFE70BD0000A1
:10381000FA0300207CB504462078012813D1A07952
:103820006179CDE900102379E278A178657805F512
:10383000FA60FEF7A7FAE379E278A178657805F5F2
:10384000FA6000F059F97CBDF0B505460E46134606
:103850002A46344605B10EB90020F0BDA24202D975
:10386000E018904208D2002103E0605C5054481CEC
:1038700081B29942F9DB07E0194603E0481E275C54
:10388000175481B20029F9DC2846E6E730B5034633
:103890000C4619460BB9002030BD01E001F8014B80
:1038A000101EA2F10105AAB2F8D11846F4E70246AB
:1038B00001E0521C491C107828B1087818B1107822
:1038C0000B789842F5D010780B78C01A70470246F2
:1038D00002B109B900207047134603E011F8010B4B
:1038E00002F8010B08780028F8D110701846F2E7AA
:1038F0000146002209B900207047002200E0521C56
:1039000011F8013B002BFAD11046F5E710B5FDF791
:1039100031FC082200212020FDF712FD09220021A0
:103920004020FDF70DFD0A2200216020FDF708FD73
:103930000D2201210020FDF703FD0B220121502063
:10394000FDF7FEFC0C2201216020FDF7F9FC0122AD
:1039500002210020FDF7F4FC022211461020FDF7A1
:10396000EFFC2E2202213020FDF7BEFC00220221B6
:103970004020FDF7E5FC032211460020FDF7E0FCA6
:10398000022203211020FDF7DBFC2E220321302030
:10399000FDF7AAFC252203214020FDF7A5FC10BD60
:1039A00010B504460E2201210020FDF7C9FC0F22AC
:1039B00001211020FDF7C4FC102201212020FDF779
:1039C000BFFC112201213020FDF7BAFC1222012197
:1039D0004020FDF7B5FC052094FBF0F100FB114001
:1039E00018BB16490978502202EB4101C8B25F2288
:1039F0000121FDF779FC11480078401C0F4908703F
:103A000008460078052810D10020087020220121E6
:103A10005020FDF769FC202201215820FDF764FCAD
:103A2000202201216020FDF75FFCFFF77DFE0428C6
:103A300001D1012010BD0020FCE70000A003002000
:103A400010B52B480088642190FBF1F03030C4B2EF
:103A5000224602212020FDF747FC254800886421EA
:103A600090FBF1F201FB12000A2190FBF1F03030E3
:103A7000C4B2224602212820FDF736FC1C480088EB
:103A80000A2190FBF1F201FB12003030C4B2224651
:103A900002213820FDF728FC16480088642190FB9D
:103AA000F1F03030C4B2224603212020FDF71CFC87
:103AB00010480088642190FBF1F201FB12000A21FA
:103AC00090FBF1F03030C4B2224603212820FDF7EC
:103AD0000BFC084800880A2190FBF1F201FB120060
:103AE0003030C4B2224603213820FDF7FDFB10BD63
:103AF000E8030020EA0300202DE9F04104460D46CA
:103B000016461F464FF47A7094FBF0F0303000F008
:103B1000FF08424600210846FDF7E6FB4FF47A70A5
:103B200094FBF0F100FB1140642190FBF1F0303088
:103B300000F0FF08424600210820FDF7D5FB642075
:103B400094FBF0F100FB11400A2190FBF1F03030C2
:103B500000F0FF08424600211020FDF7C5FB0A20B7
:103B600094FBF0F100FB1140303000F0FF084246BA
:103B700000211820FDF7B8FB642095FBF0F100FB55
:103B800011500A2190FBF1F0303000F0FF0842465E
:103B900000213020FDF7A8FB0A2095FBF0F100FB87
:103BA0001150303000F0FF08424600213820FDF768
:103BB0009BFB642096FBF0F100FB11600A2190FB57
:103BC000F1F0303000F0FF08424600215020FDF7B0
:103BD0008BFB0A2096FBF0F100FB1160303000F007
:103BE000FF08424600215820FDF77EFB07F1120036
:103BF000C2B201217020FDF7A3FBBDE8F0810000F7
:103C00003EB5002400200090019002902DA0FFF707
:103C10006FFE85B22A462BA1204600F075F8C4B28B
:103C20002AA0FFF765FE85B22A4628A1204600F0AB
:103C30006BF8C4B22AA0FFF75BFE85B22A4628A122
:103C4000204600F061F8C4B227A0FFF751FE85B20C
:103C50002A4625A1204600F057F8C4B224A0FFF759
:103C600047FE85B22A4622A1204600F04DF8C4B294
:103C70001EA0FFF73DFE85B22A461CA1204600F09B
:103C800043F8C4B200221CA16846FEF78DFD6846C9
:103C9000FFF72EFE85B22A466946204600F034F82A
:103CA000C4B218A0FFF724FE85B22A4615A120460B
:103CB00000F02AF8C4B222460321012000F072FC71
:103CC0003EBD00007B2270223A220000366E676BF8
:103CD00072626170726D70396D3072780000000030
:103CE000222C2276223A2200312E302E3000000083
:103CF000222C226D223A00002C226C6F77223A256A
:103D0000640000007D0000002DE9F04104460E46ED
:103D10001546064807192A4631463846FFF794FDEE
:103D2000601984B22046BDE8F08100004E070020F3
:103D3000024B1A181170431C98B270474E070020AE
:103D4000F0B505460E46144631462846FEF750FFAC
:103D5000C7B2A74201D00120F0BD0020FCE700005F
:103D60002DE9F04F87B0414800F090F83F480078C7
:103D70008DF818003D4840788DF819003B48807850
:103D80008DF81A009DF81A20022106A8FFF7D8FF27
:103D900000F0FF09B9F1000F27D19DF819009DF837
:103DA000181040EA01242046FCF764FB0190FCF760
:103DB00085FB074600222E4BFCF77BFA00222D4B99
:103DC000CDE90201FCF7E7FA054600222A4BFCF791
:103DD0006AFA82460022294BFCF76BFACDE904010E
:103DE000FCF74DFB2649088003E0012007B0BDE841
:103DF000F08F1E48C0788DF818001C4800798DF8A7
:103E000019001A4840798DF81A009DF81A200221ED
:103E100006A8FFF795FF00F0FF09B9F1000F22D1C6
:103E20009DF819009DF8181040EA01242046FCF77F
:103E300021FB0390FCF742FB07460022114BFCF7E5
:103E400038FA824600220B4BFCF7A5FA00220B4BF6
:103E5000CDE90401FCF72DFA0546FCF710FB0A49F1
:103E600008800020C2E70220C0E70000E203002033
:103E700000E06540E0FFEF40008046400000244045
:103E8000E803002000005940EA03002010B5044672
:103E9000FDF790F88820FDF753F8FDF7D7F8E020FC
:103EA000FDF74EF8FDF7D2F80020FDF749F8FDF7D1
:103EB000CDF8FDF77FF88920FDF742F8FDF7C6F849
:103EC0000120FDF705F820700120FDF701F8607072
:103ED0000120FCF7FDFFA0700120FCF7F9FFE07066
:103EE0000120FCF7F5FF20710020FCF7F1FF607165
:103EF000FDF786F810BD00000B4909680B4A1268EF
:103F000091420FD008490A6809498A4202D32739E9
:103F1000054A116004490968087803490968491C81
:103F2000014A116070470000F4030020F0030020F4
:103F30004807002012490968124A1268891A0129A3
:103F40001CD0104909680E4A1268914206D90D49E1
:103F500009680B4A1268891A27290FD209490A6889
:103F600009498A4202D32739064A1160054909687E
:103F7000087004490968491C024A11607047000032
:103F8000F4030020F00300204807002010B5044689
:103F900021460548FEF7C5FB00BF40210248FEF759
:103FA000F3FA0028F9D010BD004400402DE9F04F8D
:103FB0009DB00446884601250027002019901A90DC
:103FC0001B901C908346002664216846FCF7B1F8DC
:103FD0004FF000094FF0000A207801284FD1B8F1C6
:103FE000010F4CDB44E0675D0F22002119A8FFF7A9
:103FF0004DFCB81E82B26019411C19A8FFF724FCC1
:10400000E819205C303800F0FF0B681C3844265C4F
:1040100026B1012E02D01DB0BDE8F08F6422002130
:104020006846FFF733FC681C384400F1010914F8B6
:1040300009A04EB904EB0900421CF1B25B460DF138
:10404000660000F01FF810E0012E0ED11FFA8AF270
:1040500004EB0900411C6846FFF7F6FBF1B25B4632
:104060006A460DF1660000F00DF8F81C5044054456
:104070004545B8DB00221146212000F093FA00BF2D
:10408000C9E700002DE9F0418EB080460D46144688
:104090001F463222002101A8FFF7F8FB5DB9207806
:1040A0000006617840EA0140A17840EA0120E17809
:1040B00040EA010605E0012D03D1214601A8FFF7E2
:1040C00006FC11A0FEF760FB13A14046FFF7EFFBD3
:1040D00050B9F2B20221002000F060F832463946B1
:1040E0000EA0FEF751FB0CE013A14046FFF7DFFBEB
:1040F00038B901A8FEF760FD01AA394611A0FEF704
:1041000043FB0EB0BDE8F0816765745F7765746846
:1041100065720D0A00000000617169006461793AFE
:104120002564206171692076616C75652069733A38
:1041300025640D0A00000000636F6E646974696F86
:104140006E0000006461793A256420636F6E6469D3
:1041500074696F6E2076616C75652069733A25739A
:104160000D0A000070B504460D460026012C04D14E
:10417000214605A0FEF708FB05E024B92E4631468E
:1041800004A0FEF701FB70BD7265733D25640D0A46
:10419000000000006572723D2564000003465BB9B3
:1041A000012902D0022906D102E00B48027002E088
:1041B0000A48027000BF00BF012B0AD1012902D0BA
:1041C000022906D102E004480078704703480078CD
:1041D000FBE70020F9E700009C0300209D0300207E
:1041E00010B5FFF7A1FA042801D1012010BD2D4818
:1041F0000078012827D1FFF7EDFA2BA0FEF7C4FACB
:104200004FF47A70FEF70AFE0020FFF7EFFA2AA0BB
:10421000FEF7BAFA4FF47A70FEF700FEFCF7AAFF39
:10422000042201212020FDF78BF8052201213020F6
:10423000FDF786F8062201214020FDF781F80020D5
:10424000184908702BE01F2203210020FDF778F8A1
:10425000202203211020FDF773F8232203212020C0
:10426000FDF76EF8192203213020FDF769F82122AD
:1042700003214020FDF764F8222203215020FDF79E
:104280005FF83A2203216020FDF72EF8FFF74CFA81
:104290003030C4B2224603216820FDF725F8002003
:1042A000A4E70000A103002077696669D6D8D6C3C9
:1042B000CDEAB3C90D0A000077696669C4A3CABD17
:1042C000C9E8D6C3B3C9B9A60D0A000070B55E48E7
:1042D000007818B15C4800780B2802D1FFF724FA67
:1042E00004465A48007850B9042C01D1012070BD11
:1042F00056480078401C554908700020F7E753489D
:10430000007864280DDA042C04D100204F4908708D
:104310000120ECE74D480078401C4C490870002013
:10432000E5E74A48007864287ED1474800780028AD
:104330005AD1FCF71FFF232200210820FDF700F8C7
:10434000192200211820FCF7FBFF1A220021282047
:10435000FCF7F6FF1B2200213820FCF7F1FF1C229E
:1043600000214820FCF7ECFF1D2200215820FCF71B
:10437000E7FF1E2200216820FCF7E2FF1F22022136
:104380000020FCF7DDFF202202211020FCF7D8FFDF
:10439000232202212020FCF7D3FF19220221302002
:1043A000FCF7CEFF212202214020FCF7C9FF222288
:1043B00002215020FCF7C4FF3A2202216020FCF7C2
:1043C00093FFFDF7E1F8FFF7AFF9044604F1300081
:1043D000C2B202216820FCF787FF1B480078401C0E
:1043E00019490870002082E7174800780B2822D16D
:1043F000012015490870202202216820FCF774FF73
:1044000004F13000C2B202216820FCF76DFF042CD9
:1044100018D100200D4908700B490870FFF776FA93
:104420000B4D2B7AEA7900E00CE0A979A888FFF718
:1044300063FB01205BE704480078401C02490870D8
:10444000002054E7002052E79F0300209E03002035
:10445000E00600200548064908600649086000207B
:1044600005490870FF2005490870704721070020A2
:10447000F0030020F4030020F8030020FB030020D9
:1044800008B901B100BF704770B50024002509E0EC
:10449000FFF732FD38490A880988491C364B1980D4
:1044A0003649885434480088372803D200F09EF8F3
:1044B0000028EDDC30480088072800DA70BD42E0B3
:1044C0002E48005D552802D0601C84B23BE02B4989
:1044D000601C085CAA2802D0601C84B233E0274923
:1044E000A01C085C10B1A01C84B22CE02349201D44
:1044F000085C4FF6FF7101EA00252049601D085C49
:10450000C01D284485B23E2D02D9E01C84B21AE0B9
:1045100019480088001BA84200DA19E06A1E91B20F
:10452000164A1019FEF7DAFC6119491E134A515C4C
:10453000884202D0E01C84B205E02046FEF776FBFC
:10454000601984B200BF0C480088001B0728B7DA46
:1045500000BF09480088001B0749088008460088FA
:10456000002806DD05480119034802880348FFF7C3
:104570006BF900BFA2E70000EE030020EA0600206E
:1045800070B504460D4604B105B970BD03E020784E
:10459000FFF7FCFC641C281EA5F101018DB2F6D1C9
:1045A00000BFF2E72DE9F04105460E46144600270C
:1045B00055200D490870AA20487008468670C570BD
:1045C000201208714C71E01D84B2601E81B2064851
:1045D000FEF784FC0746601E03490F54214602483B
:1045E000FFF7CEFFBDE8F0814807002004480068CF
:1045F00004490968884201D0012070470020FCE787
:10460000F0030020F403002070B505460020FCF7FD
:10461000C9FB0446322C01DA002420E0B4F5FA7F0D
:1046200001DA01241BE0B4F5487F01DA022416E028
:10463000B4F57A7F01DA042411E040F2DC508442C0
:1046400001DA06240BE0B4F5FA6F01DA092406E07A
:1046500040F6B830844201DA0D2400E012242DB96E
:10466000E2B2084B59781878FDF714F8012D08D1FB
:10467000E2B2044B5B785B1ED9B2024B1878FDF7AF
:1046800009F870BDE00600200000000000000000F6
:104690000000000000000000000000F80000000022
:1046A000000000333000000000100C06100C060063
:1046B000000000000000000040C07840C0784000CA
:1046C000043F04043F040400007088FC083000002C
:1046D000001820FF211E0000F008F000E018000084
:1046E00000211C031E211E0000F00888700000003D
:1046F0001E2123241927211010160E00000000008F
:104700000000000000000000000000E018040200AB
:10471000000000071820400000020418E00000001C
:104720000040201807000000404080F0804040001A
:104730000202010F01020200000000F00000000070
:104740000101011F01010100000000000000000044
:1047500080B07000000000000000000000000000B9
:104760000001010101010101000000000000000042
:1047700000303000000000000000000080601804DD
:10478000006018060100000000E010080810E000BA
:10479000000F102020100F00001010F80000000083
:1047A0000020203F202000000070080808887000CA
:1047B000003028242221300000300888884830004A
:1047C0000018202020110E000000C02010F800006A
:1047D00000070424243F240000F808888808080003
:1047E0000019212020110E0000E010888818000018
:1047F000000F112020110E0000380808C8380800EA
:104800000000003F00000000007088080888700069
:10481000001C222121221C0000E010080810E000EA
:104820000000312222110F00000000C0C000000073
:104830000000003030000000000000800000000098
:104840000000806000000000000080402010080090
:104850000001020408102000404040404040400059
:104860000404040404040400000810204080000034
:104870000020100804020100007048080808F00039
:104880000000003036010000C030C828E810E00009
:104890000718272423140B000000C038E000000094
:1048A000203C23020227382008F8888888700000FE
:1048B000203F202020110E00C030080808083800D2
:1048C000071820202010080008F808080810E00049
:1048D000203F202020100F0008F88888E8081000EA
:1048E000203F20202320180008F88888E8081000BE
:1048F000203F200003000000C030080808380000F6
:1049000007182020221E020008F808000008F808F6
:10491000203F210101213F20000808F8080800007D
:104920000020203F2020000000000808F8080800B0
:10493000C08080807F00000008F888C02818080028
:10494000203F20012638200008F808000000000061
:10495000203F20202020300008F8F800F8F8080058
:10496000203F003F003F200008F830C00008F80852
:10497000203F200007183F00E01008080810E00062
:104980000F10202020100F0008F808080808F00079
:10499000203F210101010000E01008080810E0009C
:1049A0000F18242438504F0008F888888888700031
:1049B000203F2000030C30200070880808083800D1
:1049C0000038202121221C00180808F808081800C7
:1049D0000000203F2000000008F808000008F80848
:1049E000001F202020201F000878880000C83808F9
:1049F000000007380E010000F80800F80008F80071
:104A0000033C0700073C030008186880806818080A
:104A100020302C03032C30200838C800C838080088
:104A20000000203F2000000010080808C8380800D7
:104A30002038262120201800000000FE020202007B
:104A40000000007F40404000000C30C0000000002B
:104A5000000000010638C00000020202FE00000053
:104A6000004040407F0000000000040202020400F9
:104A70000000000000000000000000000000000036
:104A8000808080808080808000020204000000001E
:104A90000000000000000000000080808080000016
:104AA0000019242222223F2008F800808000000004
:104AB000003F112020110E000000008080800000C7
:104AC000000E112020201100000000808088F800D6
:104AD000000E112020103F20000080808080000008
:104AE000001F222222221300008080F0888888186C
:104AF0000020203F20200000000080808080800077
:104B0000006B94949493600008F80080808000000B
:104B1000203F210000203F200080989800000000E6
:104B20000020203F20200000000000809898000016
:104B300000C08080807F000008F800008080800036
:104B4000203F24022D302000000808F8000000005B
:104B50000020203F20200000808080808080800016
:104B6000203F20003F20003F8080008080800000A8
:104B7000203F210000203F20000080808080000036
:104B8000001F202020201F00808000808000000067
:104B900080FFA12020110E00000000808080800096
:104BA000000E112020A0FF80808080008080800087
:104BB00020203F21200001000000808080808000B4
:104BC0000033242424241900008080E08080000029
:104BD0000000001F20200000808000000080800076
:104BE000001F202020103F208080800000808080D7
:104BF00000010E3008060100808000800080808067
:104C00000F300C030C300F0000808000808080008B
:104C10000020312E0E3120008080800000808080B6
:104C200080818E7018060100008080808080800066
:104C30000021302C2221300000000000807C020284
:104C400000000000003F404000000000FF000000A6
:104C500000000000FF0000000002027C8000000055
:104C60000040403F00000000000601010202040471
:104C70000000000000000000000000000000000034
:104C8000C0C0000000000000000018A8D8201010CC
:104C90001010103078000000000000071F302020A6
:104CA00020202010180000001060028C0000FE92EE
:104CB00092929292FE00000004047E01407E4242E5
:104CC0007E427E42427E40000000FC242424FC25DB
:104CD0002624FC242424040040308F80844C552555
:104CE0002525554C808080001060028C00FE929239
:104CF00092929292FE00000004047E014448507F8C
:104D000040407F5048444000BFBD33FFFFBBABABCA
:104D1000AB80ABABABBBBFFFFFFF80DFEFFF00EAB9
:104D2000EAEAAA6A80FFFFFF0DED01ED01ED0DFF3C
:104D30007B7B7B7B03FFFFFF00B5B6B7B6B600FFFA
:104D4000C0BFBFBFBEBF8FFFFF01FDDDBD7D8DFDBD
:104D5000DDBD7D8DFD01FFFFFF00EFF7F9FEF1EFF7
:104D6000F7F9FEB17F80FFFF0000000000000000A7
:104D70000000000000000000000000000000000033
:104D80000000000000000000002018C74444444414
:104D9000FC444444440400000404040704040404E0
:104DA000FF04040404040400000000FE2222222266
:104DB00022222222FE0000008040300F0202020266
:104DC000020242827F000000000000FE8282828296
:104DD000828282FE00000000000000FF4040404050
:104DE000404040FF00000000000000BE2A2A2AEADE
:104DF0002A2A2A3E00000000004442494949497FCE
:104E000049494949414000000004FF242424FF048B
:104E100000FE222222FE000088482F090919AF480F
:104E2000300F0242827F0000000000C02010080AFC
:104E300084081020C0000000000000074828180E59
:104E40001110080403000000000202C2020202FE68
:104E500082828282820200004040407F4040407F48
:104E60004040404040404000080888C8380C0B08CB
:104E700008E8080808080800020100FF4041414115
:104E8000417F414141414000080889EA18880004F7
:104E900004FC040404FC0000020100FF0186402021
:104EA00018074080403F00001010F01F10F0004035
:104EB000E05847405060C00040221508162100000D
:104EC000FE42424242FE0000008060F807000000FF
:104ED000FF40201008040000010000FF0004020150
:104EE0003F404040404078008080808080808080CB
:104EF0008080808080808000000000000000000032
:104F00000000000000000000000008080808080871
:104F100008080808080000001010101010101010E9
:104F200010101010101010000004848484848484F5
:104F300084848484840400002020202020202020D9
:104F4000202020202020200000FC040404FC040475
:104F500004FC040404FC0000007F282423202020FB
:104F600020212222227F00000002424242C27E42D1
:104F7000424242C202020000404040407847404066
:104F80004040407F4040400020202020202021221F
:104F90002C20202020202000004020100C030000A6
:104FA00000010204186000002030AC6330201018AB
:104FB000A744A4140C00000022672212120402FD70
:104FC00044444445FD0202004030EF246448487FD9
:104FD0004848487F4848400001017F211100FF49AF
:104FE00049494949FF0000004042CC0000809E92A0
:104FF000929292929E80000000007F20948444242C
:10500000140F1424448484004042CC0000445454BF
:10501000547F54545444400000007F201000FF157A
:10502000151555957F0000001010D0FF90502050AE
:105030004C434C5020404000040300FF00414458C2
:10504000414E605847404000404424A4948C84FF63
:10505000848C94A4244440004040405F4A4A4A4A19
:105060004A4A4A5F40404000004042445840407F26
:1050700040405048C600000000404444444444447A
:1050800044444444FF0000000808E8292E28E808AA
:1050900008C80C0BE80808000000FF0949897F00D8
:1050A000000F40807F00000000083000FF2020201B
:1050B00020FF2020222C200004040201FF80403029
:1050C0000E01061820408000000484844424548F7C
:1050D0001424448484040000413900003C404042D0
:1050E0004C4040700409310000FE022242827202EC
:1050F0002242827202FE000000FF100806010E101C
:105100000806014E807F000080808888888888FF9C
:10511000888888888880800020201008040201FF89
:10512000010204081020200020180F08F8080800C9
:1051300000FC040404FC00008141310D030D7101E9
:10514000003F1010103F000000FC8484FC00445419
:1051500054547F5454544400003F10103F0000FF4B
:1051600015151555957F00000000101098A44744B0
:10517000A4540C04000000000081898944444A3191
:105180002111090503000000404042424242C24250
:105190004242424242404000002070282423202006
:1051A00020242830E000000000FE0222DA0600FE83
:1051B0002222222222FE000000FF08108847300F22
:1051C00002020242827F000000008060180000FF9F
:1051D0000000089020C00000008180804040201323
:1051E0000804020100000000504CA535D59545DFAC
:1051F0004555D55545D40C00424A29A5927C005707
:1052000055557F5555574000100C055555D5057F10
:105210000555555505140C001010108AA96B35253D
:1052200025ABE90810101000100C05555555057FE9
:105230000555555505140C00000041494949494997
:1052400049494949FF000000000000E0000000FF5C
:105250000000002040800000080403000040807F20
:105260000000000000010E0002E22222222222FEA3
:105270002222222222E2020000FF00000912007F07
:1052800000091240807F000000FE0222DA0608C8F2
:10529000B88FE8888888080000FF08100807080809
:1052A0000808FF080808080020180AAAAAAA0AFE87
:1052B0000AAAAAAA0A2818000000FE92929292FE58
:1052C00092929292FE0000000040405FF5555555C5
:1052D0005555F55F40400000090985452B51817DFA
:1052E00001112B458509090000080828480808FF16
:1052F00008084828080800008181414121110D0358
:105300000D1121414181810000020CC0002020E0EC
:1053100000FF70A01008000002027F001008064184
:10532000807F000106081000100C0555D555057F3B
:105330000555555505140C000004027D959595956D
:105340009D91A19F80C000000000F010101010FF80
:1053500010101010F000000000000F04040404FFFF
:10536000040404040F00000020202020202020FF3F
:10537000202020202020200080804020100C0300CE
:10538000030C10204080800002E222223E00809E1A
:105390009292F292929E8000004382423E404744A5
:1053A00044447F444454E7001060020CC00094A4BD
:1053B0008494A282A31A000004047C030004040461
:1053C00044847E0504040400004020100C00007F8B
:1053D0000000040810600000404044444444447FFE
:1053E00044444444444040000000FE929292929211
:1053F000929292929E80000040300F00001E121286
:1054000012125E80403F000040445465464464549C
:105410004440FE0222DA060000007E222222227E82
:105420000000FF08100807001060028C0080601860
:1054300000FF00008810600004047E0100808040AE
:105440004023100C03000000403C10FF10104048A7
:1054500048487F48C8484000020602FF0101000298
:105460000A1242827F02020020180AAAAAAA0AFE91
:105470000AAAAAAA0A2818000000FE92929292FE96
:1054800092929292FE0000000000F888888888FFBF
:1054900088888888F800000000001F080808087F36
:1054A000888888889F80F000101010FF10900042BC
:1054B000E2524AC64240C0000444827F0120108C60
:1054C0004320184780403F004262524AC64252621F
:1054D000C200F80000FF000040C444447F2424249C
:1054E00020000F40807F000000FC24252624FC00C3
:1054F00000FE222222FE0000007F21111509B1408A
:10550000300F0242827F000000020C806008886831
:10551000180FE8080808080002027E010020110D9B
:1055200041817F0105093000402038E724244440B0
:105530004040FF40404040000101017F211109002F
:105540000000FF00000000000040484ACC48784FAF
:105550004848CC4A48400000040402017E8282820E
:1055600092A29E81F2040400404458C0FF504C10A7
:105570009010111610D0100010080601FF0106400F
:10558000415E40704E414000008060F80720222CB0
:1055900020FF202824220000010000FF0202020256
:1055A00002FF02020202020004040484E43C2724F5
:1055B000242424E40404040004020100FF0909096E
:1055C0000949897F000000000000FE021222C20289
:1055D000C23202FE0000000080601F0020100C0399
:1055E0000C30000F3040F8000003030601040602EF
:1055F000050003051F1C1F1E1F1E1F1F1E1F1E1F31
:105600006502660261716900636F6E646974696F37
:105610006E0000003456000800000020080400005E
:10562000BC06000854570008080400207807000052
:10563000E02700080412E699B4F7E5A49AE4BA91C9
:105640000B12E9982A0B11B0912A0B269CBE540A22
:10565000119B2A0C12E99BAA690A108F18FFE5A476
:10566000A7E99BA83FE912693FF92A0B1098B554A6
:105670003CE99BB718B92D0C13E69AB469DCE5A494
:10568000B942F7E586B0E99BB9DFE4B8ADE588B08B
:10569000AE190F09105709107B493F0915FCF91580
:1056A0000B11BCBABDEEB5AEE5B0982ADEB180E90B
:1056B00083A82D1CE6B2992A1996B92A0B10B08F2F
:1056C000540C10E789B9C0390FE993F7E99BB7E7A4
:1056D00094B51CE689AC6CE993DEB08FE588B0ED3B
:1056E000697EB957197B192AD97E191519D20F125B
:1056F000E699B4E69C9754992ADB86BBCF49A8D992
:10570000F9392AEDB0E99288151BBCBABDACE5B0F9
:1057100098303954FABED2D80898E58DB7E9A38EEF
:10572000540C10E7B2927E39E71CA8E4BCC02A8969
:1057300078539BB9320184A24A0468090102030428
:10574000060708090C6910053402040608130856F8
:045750001B0804042A
:04000005080000ED02
:00000001FF
